{
  "contractName": "SupplyChain",
  "abi": [
    {
      "constant": true,
      "inputs": [
        {
          "name": "",
          "type": "uint256"
        }
      ],
      "name": "lastSteps",
      "outputs": [
        {
          "name": "",
          "type": "uint256"
        }
      ],
      "payable": false,
      "stateMutability": "view",
      "type": "function"
    },
    {
      "constant": true,
      "inputs": [],
      "name": "totalSteps",
      "outputs": [
        {
          "name": "",
          "type": "uint256"
        }
      ],
      "payable": false,
      "stateMutability": "view",
      "type": "function"
    },
    {
      "constant": true,
      "inputs": [
        {
          "name": "",
          "type": "uint256"
        }
      ],
      "name": "steps",
      "outputs": [
        {
          "name": "creator",
          "type": "address"
        },
        {
          "name": "item",
          "type": "uint256"
        }
      ],
      "payable": false,
      "stateMutability": "view",
      "type": "function"
    },
    {
      "anonymous": false,
      "inputs": [
        {
          "indexed": false,
          "name": "step",
          "type": "uint256"
        }
      ],
      "name": "StepCreated",
      "type": "event"
    },
    {
      "constant": true,
      "inputs": [
        {
          "name": "_step",
          "type": "uint256"
        }
      ],
      "name": "isLastStep",
      "outputs": [
        {
          "name": "",
          "type": "bool"
        }
      ],
      "payable": false,
      "stateMutability": "view",
      "type": "function"
    },
    {
      "constant": false,
      "inputs": [
        {
          "name": "_item",
          "type": "uint256"
        },
        {
          "name": "_precedents",
          "type": "uint256[]"
        }
      ],
      "name": "newStep",
      "outputs": [
        {
          "name": "",
          "type": "uint256"
        }
      ],
      "payable": false,
      "stateMutability": "nonpayable",
      "type": "function"
    },
    {
      "constant": true,
      "inputs": [
        {
          "name": "_step",
          "type": "uint256"
        }
      ],
      "name": "getprecedents",
      "outputs": [
        {
          "name": "",
          "type": "uint256[]"
        }
      ],
      "payable": false,
      "stateMutability": "view",
      "type": "function"
    }
  ],
  "bytecode": "0x608060405234801561001057600080fd5b5061071d806100206000396000f3fe608060405234801561001057600080fd5b50600436106100625760003560e01c80633b37986e146100675780635f63690c146100a95780636931b3ae1461017f5780636f0e823d1461019d5780637217e0b9146101e357806397add3a514610258575b600080fd5b6100936004803603602081101561007d57600080fd5b81019080803590602001909291905050506102db565b6040518082815260200191505060405180910390f35b610169600480360360408110156100bf57600080fd5b8101908080359060200190929190803590602001906401000000008111156100e657600080fd5b8201836020820111156100f857600080fd5b8035906020019184602083028401116401000000008311171561011a57600080fd5b919080806020026020016040519081016040528093929190818152602001838360200280828437600081840152601f19601f8201169050808301925050505050505091929192905050506102f3565b6040518082815260200191505060405180910390f35b610187610594565b6040518082815260200191505060405180910390f35b6101c9600480360360208110156101b357600080fd5b810190808035906020019092919050505061059a565b604051808215151515815260200191505060405180910390f35b61020f600480360360208110156101f957600080fd5b81019080803590602001909291905050506105ce565b604051808373ffffffffffffffffffffffffffffffffffffffff1673ffffffffffffffffffffffffffffffffffffffff1681526020018281526020019250505060405180910390f35b6102846004803603602081101561026e57600080fd5b8101908080359060200190929190505050610612565b6040518080602001828103825283818151815260200191508051906020019060200280838360005b838110156102c75780820151818401526020810190506102ac565b505050509050019250505060405180910390f35b60026020528060005260406000206000915090505481565b6000806000905060008090505b83518110156103dd5761032584828151811061031857fe5b602002602001015161059a565b610397576040517f08c379a000000000000000000000000000000000000000000000000000000000815260040180806020018281038252601a8152602001807f417070656e64206f6e6c79206f6e206c6173742073746570732e00000000000081525060200191505060405180910390fd5b846000808684815181106103a757fe5b602002602001015181526020019081526020016000206001015414156103d057600191506103dd565b8080600101915050610300565b508061046d57600060026000868152602001908152602001600020541461046c576040517f08c379a00000000000000000000000000000000000000000000000000000000081526004018080602001828103825260138152602001807f496e7374616e6365206e6f742076616c69642e0000000000000000000000000081525060200191505060405180910390fd5b5b60405180606001604052803373ffffffffffffffffffffffffffffffffffffffff16815260200185815260200184815250600080600154815260200190815260200160002060008201518160000160006101000a81548173ffffffffffffffffffffffffffffffffffffffff021916908373ffffffffffffffffffffffffffffffffffffffff16021790555060208201518160010155604082015181600201908051906020019061051f92919061067f565b5090505060006001549050600180600082825401925050819055508060026000878152602001908152602001600020819055507faaf69ffc30ad71be68c47171203a5feb746c3881d2dc180dbbac3893a57c6a44816040518082815260200191505060405180910390a1809250505092915050565b60015481565b6000816002600080600086815260200190815260200160002060010154815260200190815260200160002054149050919050565b60006020528060005260406000206000915090508060000160009054906101000a900473ffffffffffffffffffffffffffffffffffffffff16908060010154905082565b606060008083815260200190815260200160002060020180548060200260200160405190810160405280929190818152602001828054801561067357602002820191906000526020600020905b81548152602001906001019080831161065f575b50505050509050919050565b8280548282559060005260206000209081019282156106bb579160200282015b828111156106ba57825182559160200191906001019061069f565b5b5090506106c891906106cc565b5090565b6106ee91905b808211156106ea5760008160009055506001016106d2565b5090565b9056fea165627a7a723058208df3b567b9e4ce3cf5a4cdda439390cb76714bfaa1c9ec4398cde9971ed56abe0029",
  "source": "pragma solidity ^0.5.0;\n\nimport '../node_modules/openzeppelin-solidity/contracts/math/SafeMath.sol';\n\n/**\n* @title Supply Chain\n* @author Aryeh Katz & Mor Cohen\n* @notice Implements a basic compositional supply chain contract.\n*/\n\ncontract SupplyChain {\n    using SafeMath for uint256;\n\n    event StepCreated(uint256 step);\n\n    /**\n    * @notice By chaining these and not allowing them to be\n    * modified afterwards we create an Acyclic Directed Graph.\n    * @param creator The creator of this step.\n    * @param item The id of the object that this step refers to.\n    * @param precedents The step ids preceding this one in the supply chain.\n    */\n    struct Step {\n        address creator;\n        uint256 item;\n        uint256[] precedents;\n    }\n\n    /**\n    * @notice All steps are accessible through a mapping keyed by the step ids.\n    */\n    mapping(uint256 => Step) public steps;\n    uint256 public totalSteps;\n\n    /**\n    * @notice Mapping from item id to the last step in the lifecycle of that item.\n    */\n    mapping(uint256 => uint256) public lastSteps;\n\n\n    /**\n    * @notice A method to create a new supply chain step. The msg.sender is recorded\n    * as the -creator- of the step/asset.\n    * @param _item The item id that this step is for. This must be either the item\n    * of one of the steps in _precedents, or an id that has never been used before.\n    * @param _precedents An array of the step ids for steps considered to be\n    * predecessors to this one.\n    * @return The step id of the step created.\n    */\n\n    /**\n    * @notice A method to verify whether a step is the last of an item.\n    * @param _step The step id of the step to verify.\n    * @return Whether a step is the last of an item.\n    */\n    function isLastStep(uint256 _step) public view returns(bool){\n        return lastSteps[steps[_step].item] == _step;\n    }\n\n    function newStep(uint256 _item, uint256[] memory _precedents) public returns(uint256){\n        // Make sure each substep is the last step of it's own supply chain\n        bool repeatInstance = false;\n        for (uint i = 0; i < _precedents.length; i++){\n            require(isLastStep(_precedents[i]), \"Append only on last steps.\");\n            // check for reused items\n            if (steps[_precedents[i]].item == _item) {\n                repeatInstance = true;\n                break;\n            }\n        }\n        // if it's not a reused item, require it to be the last item\n        if (!repeatInstance){\n            require(lastSteps[_item] == 0, \"Instance not valid.\");\n        }\n\n        // create new Step in the chain\n        steps[totalSteps] = Step(msg.sender,_item,_precedents);\n        uint256 step = totalSteps;\n        totalSteps += 1;\n        lastSteps[_item] = step;\n        emit StepCreated(step);\n        return step;\n    }\n\n    /**\n    * @notice A method to retrieve the precedents of a step.\n    * @param _step The step id of the step to retrieve precedents for.\n    * @return An array with the step ids of the precedent steps.\n    */\n\n    function getprecedents(uint256 _step) public view returns(uint256[] memory){\n        return steps[_step].precedents;\n    }\n}",
  "sourcePath": "/Users/aryehkatz/Dropbox/studies/blockchain/project/contracts/SupplyChain.sol",
  "compiler": {
    "name": "solc",
    "version": "0.5.8+commit.23d335f2.Emscripten.clang"
  },
  "schemaVersion": "3.0.11",
  "updatedAt": "2019-07-26T10:00:47.725Z",
  "devdoc": {
    "author": "Aryeh Katz & Mor Cohen",
    "methods": {
      "getprecedents(uint256)": {
        "params": {
          "_step": "The step id of the step to retrieve precedents for."
        },
        "return": "An array with the step ids of the precedent steps."
      },
      "isLastStep(uint256)": {
        "params": {
          "_step": "The step id of the step to verify."
        },
        "return": "Whether a step is the last of an item."
      }
    },
    "title": "Supply Chain"
  },
  "userdoc": {
    "methods": {
      "getprecedents(uint256)": {
        "notice": "A method to retrieve the precedents of a step."
      },
      "isLastStep(uint256)": {
        "notice": "A method to verify whether a step is the last of an item."
      }
    },
    "notice": "Implements a basic compositional supply chain contract."
  }
}